{
  "_format": "hh3-artifact-1",
  "contractName": "AgentNFT",
  "sourceName": "contracts/AgentNFT.sol",
  "abi": [
    {
      "inputs": [],
      "stateMutability": "nonpayable",
      "type": "constructor"
    },
    {
      "inputs": [
        {
          "internalType": "address",
          "name": "sender",
          "type": "address"
        },
        {
          "internalType": "uint256",
          "name": "tokenId",
          "type": "uint256"
        },
        {
          "internalType": "address",
          "name": "owner",
          "type": "address"
        }
      ],
      "name": "ERC721IncorrectOwner",
      "type": "error"
    },
    {
      "inputs": [
        {
          "internalType": "address",
          "name": "operator",
          "type": "address"
        },
        {
          "internalType": "uint256",
          "name": "tokenId",
          "type": "uint256"
        }
      ],
      "name": "ERC721InsufficientApproval",
      "type": "error"
    },
    {
      "inputs": [
        {
          "internalType": "address",
          "name": "approver",
          "type": "address"
        }
      ],
      "name": "ERC721InvalidApprover",
      "type": "error"
    },
    {
      "inputs": [
        {
          "internalType": "address",
          "name": "operator",
          "type": "address"
        }
      ],
      "name": "ERC721InvalidOperator",
      "type": "error"
    },
    {
      "inputs": [
        {
          "internalType": "address",
          "name": "owner",
          "type": "address"
        }
      ],
      "name": "ERC721InvalidOwner",
      "type": "error"
    },
    {
      "inputs": [
        {
          "internalType": "address",
          "name": "receiver",
          "type": "address"
        }
      ],
      "name": "ERC721InvalidReceiver",
      "type": "error"
    },
    {
      "inputs": [
        {
          "internalType": "address",
          "name": "sender",
          "type": "address"
        }
      ],
      "name": "ERC721InvalidSender",
      "type": "error"
    },
    {
      "inputs": [
        {
          "internalType": "uint256",
          "name": "tokenId",
          "type": "uint256"
        }
      ],
      "name": "ERC721NonexistentToken",
      "type": "error"
    },
    {
      "inputs": [
        {
          "internalType": "address",
          "name": "owner",
          "type": "address"
        }
      ],
      "name": "OwnableInvalidOwner",
      "type": "error"
    },
    {
      "inputs": [
        {
          "internalType": "address",
          "name": "account",
          "type": "address"
        }
      ],
      "name": "OwnableUnauthorizedAccount",
      "type": "error"
    },
    {
      "anonymous": false,
      "inputs": [
        {
          "indexed": true,
          "internalType": "uint256",
          "name": "tokenId",
          "type": "uint256"
        },
        {
          "indexed": false,
          "internalType": "string[]",
          "name": "capabilities",
          "type": "string[]"
        }
      ],
      "name": "AgentCapabilitiesUpdated",
      "type": "event"
    },
    {
      "anonymous": false,
      "inputs": [
        {
          "indexed": true,
          "internalType": "uint256",
          "name": "agentId",
          "type": "uint256"
        },
        {
          "indexed": false,
          "internalType": "string",
          "name": "metadataURI",
          "type": "string"
        }
      ],
      "name": "AgentMetadataUpdated",
      "type": "event"
    },
    {
      "anonymous": false,
      "inputs": [
        {
          "indexed": true,
          "internalType": "uint256",
          "name": "tokenId",
          "type": "uint256"
        },
        {
          "indexed": true,
          "internalType": "address",
          "name": "creator",
          "type": "address"
        },
        {
          "indexed": false,
          "internalType": "address",
          "name": "agentExecutionAddress",
          "type": "address"
        },
        {
          "indexed": false,
          "internalType": "address",
          "name": "revenueDistributor",
          "type": "address"
        },
        {
          "indexed": false,
          "internalType": "string",
          "name": "ipfsHash",
          "type": "string"
        },
        {
          "indexed": false,
          "internalType": "string[]",
          "name": "capabilities",
          "type": "string[]"
        }
      ],
      "name": "AgentMinted",
      "type": "event"
    },
    {
      "anonymous": false,
      "inputs": [
        {
          "indexed": true,
          "internalType": "address",
          "name": "owner",
          "type": "address"
        },
        {
          "indexed": true,
          "internalType": "address",
          "name": "approved",
          "type": "address"
        },
        {
          "indexed": true,
          "internalType": "uint256",
          "name": "tokenId",
          "type": "uint256"
        }
      ],
      "name": "Approval",
      "type": "event"
    },
    {
      "anonymous": false,
      "inputs": [
        {
          "indexed": true,
          "internalType": "address",
          "name": "owner",
          "type": "address"
        },
        {
          "indexed": true,
          "internalType": "address",
          "name": "operator",
          "type": "address"
        },
        {
          "indexed": false,
          "internalType": "bool",
          "name": "approved",
          "type": "bool"
        }
      ],
      "name": "ApprovalForAll",
      "type": "event"
    },
    {
      "anonymous": false,
      "inputs": [
        {
          "indexed": true,
          "internalType": "address",
          "name": "previousOwner",
          "type": "address"
        },
        {
          "indexed": true,
          "internalType": "address",
          "name": "newOwner",
          "type": "address"
        }
      ],
      "name": "OwnershipTransferred",
      "type": "event"
    },
    {
      "anonymous": false,
      "inputs": [
        {
          "indexed": true,
          "internalType": "address",
          "name": "from",
          "type": "address"
        },
        {
          "indexed": true,
          "internalType": "address",
          "name": "to",
          "type": "address"
        },
        {
          "indexed": true,
          "internalType": "uint256",
          "name": "tokenId",
          "type": "uint256"
        }
      ],
      "name": "Transfer",
      "type": "event"
    },
    {
      "inputs": [
        {
          "internalType": "uint256",
          "name": "",
          "type": "uint256"
        }
      ],
      "name": "agentMetadata",
      "outputs": [
        {
          "internalType": "string",
          "name": "ipfsHash",
          "type": "string"
        },
        {
          "internalType": "address",
          "name": "agentExecutionAddress",
          "type": "address"
        },
        {
          "internalType": "address",
          "name": "revenueDistributor",
          "type": "address"
        },
        {
          "internalType": "address",
          "name": "creator",
          "type": "address"
        },
        {
          "internalType": "uint256",
          "name": "createdAt",
          "type": "uint256"
        }
      ],
      "stateMutability": "view",
      "type": "function"
    },
    {
      "inputs": [
        {
          "internalType": "uint256",
          "name": "agentId",
          "type": "uint256"
        }
      ],
      "name": "agentURI",
      "outputs": [
        {
          "internalType": "string",
          "name": "",
          "type": "string"
        }
      ],
      "stateMutability": "view",
      "type": "function"
    },
    {
      "inputs": [
        {
          "internalType": "address",
          "name": "to",
          "type": "address"
        },
        {
          "internalType": "uint256",
          "name": "tokenId",
          "type": "uint256"
        }
      ],
      "name": "approve",
      "outputs": [],
      "stateMutability": "nonpayable",
      "type": "function"
    },
    {
      "inputs": [
        {
          "internalType": "address",
          "name": "owner",
          "type": "address"
        }
      ],
      "name": "balanceOf",
      "outputs": [
        {
          "internalType": "uint256",
          "name": "",
          "type": "uint256"
        }
      ],
      "stateMutability": "view",
      "type": "function"
    },
    {
      "inputs": [
        {
          "internalType": "uint256",
          "name": "tokenId",
          "type": "uint256"
        }
      ],
      "name": "getAgentExecutionAddress",
      "outputs": [
        {
          "internalType": "address",
          "name": "",
          "type": "address"
        }
      ],
      "stateMutability": "view",
      "type": "function"
    },
    {
      "inputs": [
        {
          "internalType": "uint256",
          "name": "tokenId",
          "type": "uint256"
        }
      ],
      "name": "getAgentMetadata",
      "outputs": [
        {
          "components": [
            {
              "internalType": "string",
              "name": "ipfsHash",
              "type": "string"
            },
            {
              "internalType": "address",
              "name": "agentExecutionAddress",
              "type": "address"
            },
            {
              "internalType": "address",
              "name": "revenueDistributor",
              "type": "address"
            },
            {
              "internalType": "address",
              "name": "creator",
              "type": "address"
            },
            {
              "internalType": "uint256",
              "name": "createdAt",
              "type": "uint256"
            },
            {
              "internalType": "string[]",
              "name": "capabilities",
              "type": "string[]"
            }
          ],
          "internalType": "struct AgentNFT.AgentMetadata",
          "name": "",
          "type": "tuple"
        }
      ],
      "stateMutability": "view",
      "type": "function"
    },
    {
      "inputs": [
        {
          "internalType": "uint256",
          "name": "tokenId",
          "type": "uint256"
        }
      ],
      "name": "getApproved",
      "outputs": [
        {
          "internalType": "address",
          "name": "",
          "type": "address"
        }
      ],
      "stateMutability": "view",
      "type": "function"
    },
    {
      "inputs": [
        {
          "internalType": "uint256",
          "name": "agentId",
          "type": "uint256"
        }
      ],
      "name": "getCapabilities",
      "outputs": [
        {
          "internalType": "string[]",
          "name": "",
          "type": "string[]"
        }
      ],
      "stateMutability": "view",
      "type": "function"
    },
    {
      "inputs": [
        {
          "internalType": "uint256",
          "name": "tokenId",
          "type": "uint256"
        }
      ],
      "name": "getRevenueDistributor",
      "outputs": [
        {
          "internalType": "address",
          "name": "",
          "type": "address"
        }
      ],
      "stateMutability": "view",
      "type": "function"
    },
    {
      "inputs": [
        {
          "internalType": "uint256",
          "name": "agentId",
          "type": "uint256"
        },
        {
          "internalType": "string",
          "name": "capability",
          "type": "string"
        }
      ],
      "name": "hasCapability",
      "outputs": [
        {
          "internalType": "bool",
          "name": "",
          "type": "bool"
        }
      ],
      "stateMutability": "view",
      "type": "function"
    },
    {
      "inputs": [
        {
          "internalType": "address",
          "name": "owner",
          "type": "address"
        },
        {
          "internalType": "address",
          "name": "operator",
          "type": "address"
        }
      ],
      "name": "isApprovedForAll",
      "outputs": [
        {
          "internalType": "bool",
          "name": "",
          "type": "bool"
        }
      ],
      "stateMutability": "view",
      "type": "function"
    },
    {
      "inputs": [
        {
          "internalType": "string",
          "name": "ipfsHash",
          "type": "string"
        },
        {
          "internalType": "address",
          "name": "agentExecutionAddress",
          "type": "address"
        },
        {
          "internalType": "address",
          "name": "revenueDistributor",
          "type": "address"
        },
        {
          "internalType": "string[]",
          "name": "capabilities",
          "type": "string[]"
        }
      ],
      "name": "mint",
      "outputs": [
        {
          "internalType": "uint256",
          "name": "",
          "type": "uint256"
        }
      ],
      "stateMutability": "nonpayable",
      "type": "function"
    },
    {
      "inputs": [],
      "name": "name",
      "outputs": [
        {
          "internalType": "string",
          "name": "",
          "type": "string"
        }
      ],
      "stateMutability": "view",
      "type": "function"
    },
    {
      "inputs": [],
      "name": "owner",
      "outputs": [
        {
          "internalType": "address",
          "name": "",
          "type": "address"
        }
      ],
      "stateMutability": "view",
      "type": "function"
    },
    {
      "inputs": [
        {
          "internalType": "uint256",
          "name": "tokenId",
          "type": "uint256"
        }
      ],
      "name": "ownerOf",
      "outputs": [
        {
          "internalType": "address",
          "name": "",
          "type": "address"
        }
      ],
      "stateMutability": "view",
      "type": "function"
    },
    {
      "inputs": [],
      "name": "renounceOwnership",
      "outputs": [],
      "stateMutability": "nonpayable",
      "type": "function"
    },
    {
      "inputs": [
        {
          "internalType": "address",
          "name": "from",
          "type": "address"
        },
        {
          "internalType": "address",
          "name": "to",
          "type": "address"
        },
        {
          "internalType": "uint256",
          "name": "tokenId",
          "type": "uint256"
        }
      ],
      "name": "safeTransferFrom",
      "outputs": [],
      "stateMutability": "nonpayable",
      "type": "function"
    },
    {
      "inputs": [
        {
          "internalType": "address",
          "name": "from",
          "type": "address"
        },
        {
          "internalType": "address",
          "name": "to",
          "type": "address"
        },
        {
          "internalType": "uint256",
          "name": "tokenId",
          "type": "uint256"
        },
        {
          "internalType": "bytes",
          "name": "data",
          "type": "bytes"
        }
      ],
      "name": "safeTransferFrom",
      "outputs": [],
      "stateMutability": "nonpayable",
      "type": "function"
    },
    {
      "inputs": [
        {
          "internalType": "address",
          "name": "operator",
          "type": "address"
        },
        {
          "internalType": "bool",
          "name": "approved",
          "type": "bool"
        }
      ],
      "name": "setApprovalForAll",
      "outputs": [],
      "stateMutability": "nonpayable",
      "type": "function"
    },
    {
      "inputs": [
        {
          "internalType": "bytes4",
          "name": "interfaceId",
          "type": "bytes4"
        }
      ],
      "name": "supportsInterface",
      "outputs": [
        {
          "internalType": "bool",
          "name": "",
          "type": "bool"
        }
      ],
      "stateMutability": "view",
      "type": "function"
    },
    {
      "inputs": [],
      "name": "symbol",
      "outputs": [
        {
          "internalType": "string",
          "name": "",
          "type": "string"
        }
      ],
      "stateMutability": "view",
      "type": "function"
    },
    {
      "inputs": [
        {
          "internalType": "uint256",
          "name": "tokenId",
          "type": "uint256"
        }
      ],
      "name": "tokenURI",
      "outputs": [
        {
          "internalType": "string",
          "name": "",
          "type": "string"
        }
      ],
      "stateMutability": "view",
      "type": "function"
    },
    {
      "inputs": [
        {
          "internalType": "address",
          "name": "from",
          "type": "address"
        },
        {
          "internalType": "address",
          "name": "to",
          "type": "address"
        },
        {
          "internalType": "uint256",
          "name": "tokenId",
          "type": "uint256"
        }
      ],
      "name": "transferFrom",
      "outputs": [],
      "stateMutability": "nonpayable",
      "type": "function"
    },
    {
      "inputs": [
        {
          "internalType": "address",
          "name": "newOwner",
          "type": "address"
        }
      ],
      "name": "transferOwnership",
      "outputs": [],
      "stateMutability": "nonpayable",
      "type": "function"
    },
    {
      "inputs": [
        {
          "internalType": "uint256",
          "name": "tokenId",
          "type": "uint256"
        },
        {
          "internalType": "string[]",
          "name": "capabilities",
          "type": "string[]"
        }
      ],
      "name": "updateCapabilities",
      "outputs": [],
      "stateMutability": "nonpayable",
      "type": "function"
    },
    {
      "inputs": [
        {
          "internalType": "uint256",
          "name": "tokenId",
          "type": "uint256"
        },
        {
          "internalType": "string",
          "name": "newIpfsHash",
          "type": "string"
        }
      ],
      "name": "updateMetadata",
      "outputs": [],
      "stateMutability": "nonpayable",
      "type": "function"
    }
  ],
  "bytecode": "0x60806040523461037657604080519081016001600160401b0381118282101761028c576040908152600d82526c115d1a195c995d5b5059d95b9d609a1b602083015280519081016001600160401b0381118282101761028c576040526006815265115051d1539560d21b602082015281516001600160401b03811161028c575f54600181811c9116801561036c575b602082101461026e57601f811161030a575b50602092601f82116001146102ab57928192935f926102a0575b50508160011b915f199060031b1c1916175f555b80516001600160401b03811161028c57600154600181811c91168015610282575b602082101461026e57601f811161020b575b50602091601f82116001146101ab579181925f926101a0575b50508160011b915f199060031b1c1916176001555b331561018d5760068054336001600160a01b03198216811790925560405191906001600160a01b03167f8be0079c531659141344cd1fd0a4f28419497f9722a3daafe3b4186f6b6457e05f80a36001600755611f7c908161037b8239f35b631e4fbdf760e01b5f525f60045260245ffd5b015190505f8061011a565b601f1982169260015f52805f20915f5b8581106101f3575083600195106101db575b505050811b0160015561012f565b01515f1960f88460031b161c191690555f80806101cd565b919260206001819286850151815501940192016101bb565b60015f527fb10e2d527612073b26eecdfd717e6a320cf44b4afac2b0732d9fcbe2b7fa0cf6601f830160051c81019160208410610264575b601f0160051c01905b8181106102595750610101565b5f815560010161024c565b9091508190610243565b634e487b7160e01b5f52602260045260245ffd5b90607f16906100ef565b634e487b7160e01b5f52604160045260245ffd5b015190505f806100ba565b601f198216935f8052805f20915f5b8681106102f257508360019596106102da575b505050811b015f556100ce565b01515f1960f88460031b161c191690555f80806102cd565b919260206001819286850151815501940192016102ba565b5f80527f290decd9548b62a8d60345a988386fc84ba6bc95484008f6362f93160ef3e563601f830160051c81019160208410610362575b601f0160051c01905b81811061035757506100a0565b5f815560010161034a565b9091508190610341565b90607f169061008e565b5f80fdfe60c0806040526004361015610012575f80fd5b5f3560e01c90816301ffc9a71461150a5750806306fdde0314611468578063081812fc1461142c578063095ea7b3146113425780631cf3138e146112a85780631efea81114610b2257806323b872dd14610b0b57806342842e0e14610adc57806347a95efb14610a5957806353c8388e146108cc57806359295330146107655780635d006f13146107305780636352211e1461070057806370a08231146106af578063715018a61461065457806378396cb3146103e55780638da5cb5b1461062c57806395d89b411461054a5780639d60c14114610527578063a22cb4651461048c578063a7adbd4814610457578063b88d4fde146103ea578063c87b56dd146103e5578063dcfc01f21461021b578063e985e9c5146101c45763f2fde38b1461013a575f80fd5b346101c05760203660031901126101c0576101536115b3565b61015b611de9565b6001600160a01b031680156101ad57600680546001600160a01b0319811683179091556001600160a01b03167f8be0079c531659141344cd1fd0a4f28419497f9722a3daafe3b4186f6b6457e05f80a3005b631e4fbdf760e01b5f525f60045260245ffd5b5f80fd5b346101c05760403660031901126101c0576101dd6115b3565b6101e56115c9565b9060018060a01b03165f52600560205260405f209060018060a01b03165f52602052602060ff60405f2054166040519015158152f35b346101c05760403660031901126101c0576004356024356001600160401b0381116101c05761024e90369060040161160c565b61026a61025a84611db5565b6001600160a01b03163314611d08565b610275811515611991565b825f526008602052600560405f200161028e8282611a40565b82905f5260205f20905f601e1985360301915b8482106102e857867fffa2affdbf14456fc1b11b726f1d04b1f494bc93274aa13aa4fc9c5f28c509a987876102e3604051928392602084526020840191611af6565b0390a2005b8035838112156101c05786018035906001600160401b0382116101c05781360360208201136101c0576103258261031f8854611676565b886119fd565b5f90601f8311600114610377579261035b836001959460209487965f9261036a575b50508160011b915f199060031b1c19161790565b87555b019401910190926102a1565b8692500101358d80610347565b601f19831691875f5260205f20925f5b8181106103cb57509360209360019693879693838895106103b0575b505050811b01875561035e565b018501355f19600384901b60f8161c191690558c80806103a3565b919360206001819282888801013581550195019201610387565b6117bd565b346101c05760803660031901126101c0576104036115b3565b61040b6115c9565b90604435606435926001600160401b0384116101c057366023850112156101c0576104436104559436906024816004013591016118b1565b9261044f838383611b7b565b33611e10565b005b346101c05760203660031901126101c0576004355f526008602052602060018060a01b03600160405f20015416604051908152f35b346101c05760403660031901126101c0576104a56115b3565b602435908115158092036101c0576001600160a01b031690811561051457335f52600560205260405f20825f5260205260405f2060ff1981541660ff83161790556040519081527f17307eab39ab6107e8899845ad3d59bd9653f200f220920489ca2b5937696c3160203392a3005b50630b61174360e31b5f5260045260245ffd5b346101c057602061054061053a3661178a565b91611d46565b6040519015158152f35b346101c0575f3660031901126101c0576040515f60015461056a81611676565b808452906001811690811561060857506001146105aa575b6105a683610592818503826116c9565b60405191829160208352602083019061158f565b0390f35b60015f9081527fb10e2d527612073b26eecdfd717e6a320cf44b4afac2b0732d9fcbe2b7fa0cf6939250905b8082106105ee57509091508101602001610592610582565b9192600181602092548385880101520191019092916105d6565b60ff191660208086019190915291151560051b840190910191506105929050610582565b346101c0575f3660031901126101c0576006546040516001600160a01b039091168152602090f35b346101c0575f3660031901126101c05761066c611de9565b600680546001600160a01b031981169091555f906001600160a01b03167f8be0079c531659141344cd1fd0a4f28419497f9722a3daafe3b4186f6b6457e08280a3005b346101c05760203660031901126101c0576001600160a01b036106d06115b3565b1680156106ed575f526003602052602060405f2054604051908152f35b6322718ad960e21b5f525f60045260245ffd5b346101c05760203660031901126101c057602061071e600435611db5565b6040516001600160a01b039091168152f35b346101c05760203660031901126101c0576004355f526008602052602060018060a01b03600260405f20015416604051908152f35b346101c05760203660031901126101c057606060a0604051610786816116ae565b8281525f60208201525f60408201525f838201525f608082015201526004355f52600860205261083d60405f20604051906107c0826116ae565b6107c9816116ea565b825260018101546001600160a01b039081166020840190815260028301548216604085019081526003840154909216606085019081526004840154608086019081529193610819906005016118fe565b9260a08601938452604051968796602088525160c0602089015260e088019061158f565b94516001600160a01b03908116604088015290518116606087015290511660808501525160a084015251828203601f190160c084015280518083526020600582901b8401810193928101925f918101905b83831061089b5786860387f35b9193955091936020806108ba600193601f19868203018752895161158f565b9701930193019092869594929361088e565b346101c0576108da3661178a565b906108e761025a84611db5565b6108f2821515611953565b825f52600860205260405f206001600160401b038311610a45576109208361091a8354611676565b836119fd565b5f601f84116001146109b75760276102e3938593610978857f859fac2fc059a2fa38efe7236e1c16278c1519298d62dd05582ff7fa392a104598610592965f916109ac575b508160011b915f199060031b1c19161790565b90555b8360405194859266697066733a2f2f60c81b60208501528484013781015f838201520301601f1981018352826116c9565b90508401358b610965565b601f19841690825f5260205f20915f5b818110610a2d5750938593610592936027937f859fac2fc059a2fa38efe7236e1c16278c1519298d62dd05582ff7fa392a1045986102e39810610a14575b5050600185811b01905561097b565b8301355f19600388901b60f8161c191690558880610a05565b919260206001819286890135815501940192016109c7565b634e487b7160e01b5f52604160045260245ffd5b346101c05760203660031901126101c0576004355f526008602052610ac360405f20610a84816116ea565b60018201546002830154600384015460049094015460405160a0808252909687966001600160a01b03958616969395908116941692909187019061158f565b9360208601526040850152606084015260808301520390f35b346101c057610455610aed3661163c565b9060405192610afd6020856116c9565b5f845261044f838383611b7b565b346101c057610455610b1c3661163c565b91611b7b565b346101c05760803660031901126101c0576004356001600160401b0381116101c057610b529036906004016115df565b90610b5b6115c9565b6044356001600160a01b03811681036101c0576064356001600160401b0381116101c057610b8d90369060040161160c565b9290916001600160a01b03821615611263576001600160a01b0381161561121e57610bb9861515611953565b610bc4841515611991565b60075460808190525f191461120a57608051600101600755602060a081905260405190610bf190826116c9565b5f815233156111f7576080515f90815260a0516002905260409020546001600160a01b031680151590816111b6575b335f81815260a0805160039052604080832080546001019055608080518452915160029052822080546001600160a01b0319168417905551919083907fddf252ad1be2c89b69c2b068fc378daa952ba7f163c4a11628f55a4df523b3ef9080a4506111a357333b61108b575b50604051610c99816116ae565b610ca43688886118b1565b815260a0516001600160a01b038481169183019182528316604083019081523360608401908152426080850152909290610cdd886118e7565b93610ceb60405195866116c9565b88855260a0518501368a60051b8a01116101c05788905b8a60051b8a01821061104d57505060a083019485526080515f52600860a0515260405f209383518051906001600160401b038211610a4557610d4e82610d488954611676565b896119fd565b60a05190601f8311600114610fde57826005989795936080979593610d87935f92610fd35750508160011b915f199060031b1c19161790565b86555b516001860180546001600160a01b039283166001600160a01b0319918216179091559151600287018054918316918416919091179055915160038601805491909316911617905501516004820155915180519190920191610deb8284611a40565b60a0515f9384528084209391015b828210610ef65789610ea960278b8b8b7f990d437d480147089715dd6bed1ecae9759d3986ed046ad945b48151e74d159f8c8c6040519160018060a01b0316825260018060a01b031660a0518201526080604082015280610e74610e61608083018b89611ad6565b8281036060840152339660805196611af6565b0390a38360405194859266697066733a2f2f60c81b60a0518501528484013781015f838201520301601f1981018352826116c9565b7f859fac2fc059a2fa38efe7236e1c16278c1519298d62dd05582ff7fa392a104560405160a051815280610ee56080519460a05183019061158f565b0390a2604051608051815260a05190f35b80518051906001600160401b038211610a4557610f178261031f8854611676565b60a05190601f8311600114610f69578260019492938594610f4c935f92610f5e5750508160011b915f199060031b1c19161790565b86555b60a05101940191019092610df9565b015190508f80610347565b90601f19831691875f5260a0515f20925f5b818110610fba575092600195939285928796879510610fa2575b505050811b018655610f4f565b01515f1960f88460031b161c191690558e8080610f95565b82840151855560a0516001909501949384019301610f7b565b015190505f80610347565b90601f19831691885f5260a0515f20925f5b818110611034575092600192859260059b9a989660809a98961061101c575b505050811b018655610d8a565b01515f1960f88460031b161c191690555f808061100f565b82840151855560a0516001909501949384019301610ff0565b81356001600160401b0381116101c0578a0136601f820112156101c05761107c90369080359060a051016118b1565b815260a0519182019101610d02565b60405190630a85bd0160e11b82523360048301525f602483015260805160448301526080606483015281806110c760a05193608483019061158f565b03815f335af15f918161115c575b5061112c573d15611125573d6110ea81611896565b906110f860405192836116c9565b8152805f3d9160a051013e5b8051908161111f57633250574960e11b5f523360045260245ffd5b60a05101fd5b6060611104565b6001600160e01b03191663757a42ff60e11b016111495786610c8c565b633250574960e11b5f523360045260245ffd5b90915060a0513d60a0511161119c575b61117681836116c9565b8160a05191810103126101c057516001600160e01b0319811681036101c05790886110d5565b503d61116c565b6339e3563760e11b5f525f60045260245ffd5b6111de6080515f52600460205260405f206bffffffffffffffffffffffff60a01b8154169055565b805f52600360a0515260405f205f198154019055610c20565b633250574960e11b5f525f60045260245ffd5b634e487b7160e01b5f52601160045260245ffd5b60405162461bcd60e51b815260206004820152601b60248201527f496e76616c696420726576656e7565206469737472696275746f7200000000006044820152606490fd5b60405162461bcd60e51b815260206004820152601960248201527f496e76616c696420657865637574696f6e2061646472657373000000000000006044820152606490fd5b346101c05760203660031901126101c0576004356112c581611db5565b505f5260086020526112dc600560405f20016118fe565b6040518091602082016020835281518091526040830190602060408260051b8601019301915f905b82821061131357505050500390f35b919360019193955060206113328192603f198a8203018652885161158f565b9601920192018594939192611304565b346101c05760403660031901126101c05761135b6115b3565b60243561136781611db5565b33151580611419575b806113ec575b6113d95781906001600160a01b0384811691167f8c5be1e5ebec7d5bd14f71427d1e84f3dd0314c0f7b2291e5b200ac8c7c3b9255f80a45f90815260046020526040902080546001600160a01b0319166001600160a01b03909216919091179055005b63a9fbf51f60e01b5f523360045260245ffd5b506001600160a01b0381165f90815260056020908152604080832033845290915290205460ff1615611376565b506001600160a01b038116331415611370565b346101c05760203660031901126101c05760043561144981611db5565b505f526004602052602060018060a01b0360405f205416604051908152f35b346101c0575f3660031901126101c0576040515f5f5461148781611676565b808452906001811690811561060857506001146114ae576105a683610592818503826116c9565b5f8080527f290decd9548b62a8d60345a988386fc84ba6bc95484008f6362f93160ef3e563939250905b8082106114f057509091508101602001610592610582565b9192600181602092548385880101520191019092916114d8565b346101c05760203660031901126101c0576004359063ffffffff60e01b82168092036101c057602091633e6aaf9f60e21b811490811561154c575b5015158152f35b6380ac58cd60e01b81149150811561157e575b811561156d575b5083611545565b6301ffc9a760e01b14905083611566565b635b5e139f60e01b8114915061155f565b805180835260209291819084018484015e5f828201840152601f01601f1916010190565b600435906001600160a01b03821682036101c057565b602435906001600160a01b03821682036101c057565b9181601f840112156101c0578235916001600160401b0383116101c057602083818601950101116101c057565b9181601f840112156101c0578235916001600160401b0383116101c0576020808501948460051b0101116101c057565b60609060031901126101c0576004356001600160a01b03811681036101c057906024356001600160a01b03811681036101c0579060443590565b90600182811c921680156116a4575b602083101461169057565b634e487b7160e01b5f52602260045260245ffd5b91607f1691611685565b60c081019081106001600160401b03821117610a4557604052565b90601f801991011681019081106001600160401b03821117610a4557604052565b9060405191825f8254926116fd84611676565b80845293600181169081156117685750600114611724575b50611722925003836116c9565b565b90505f9291925260205f20905f915b81831061174c575050906020611722928201015f611715565b6020919350806001915483858901015201910190918492611733565b90506020925061172294915060ff191682840152151560051b8201015f611715565b9060406003198301126101c05760043591602435906001600160401b0382116101c0576117b9916004016115df565b9091565b346101c05760203660031901126101c0576004356117da81611db5565b505f52600860205260405f2060405166697066733a2f2f60c81b60208201525f9180549061180782611676565b916001811690811561186f5750600114611833575b6105a683610592818703601f1981018352826116c9565b9092505f5260205f205f905b838210611858575050908101602701906105928161181c565b60018160209254602785870101520191019061183f565b6105a6955084925060279150926105929360ff19168284015280151502820101935061181c565b6001600160401b038111610a4557601f01601f191660200190565b9291926118bd82611896565b916118cb60405193846116c9565b8294818452818301116101c0578281602093845f960137010152565b6001600160401b038111610a455760051b60200190565b90815461190a816118e7565b9261191860405194856116c9565b81845260208401905f5260205f205f915b8383106119365750505050565b600160208192611945856116ea565b815201920192019190611929565b1561195a57565b60405162461bcd60e51b815260206004820152600f60248201526e08adae0e8f24092a08ca640d0c2e6d608b1b6044820152606490fd5b1561199857565b60405162461bcd60e51b815260206004820152602160248201527f4d7573742068617665206174206c65617374206f6e65206361706162696c69746044820152607960f81b6064820152608490fd5b8181106119f2575050565b5f81556001016119e7565b9190601f8111611a0c57505050565b611722925f5260205f20906020601f840160051c83019310611a36575b601f0160051c01906119e7565b9091508190611a29565b90680100000000000000008111610a4557815491818155828210611a6357505050565b5f5260205f2091820191015b818110611a7a575050565b80611a8760019254611676565b80611a94575b5001611a6f565b601f81118314611aa957505f81555b5f611a8d565b611ac590825f5283601f60205f20920160051c820191016119e7565b805f525f6020812081835555611aa3565b908060209392818452848401375f828201840152601f01601f1916010190565b90602083828152019060208160051b85010193835f915b838310611b1d5750505050505090565b909192939495601f198282030186528635601e19843603018112156101c057830190602082359201916001600160401b0381116101c05780360383136101c057611b6d6020928392600195611ad6565b980196019493019190611b0d565b6001600160a01b03909116919082156111f7575f828152600260205260409020546001600160a01b031692829033151580611c73575b5084611c40575b805f52600360205260405f2060018154019055815f52600260205260405f20816bffffffffffffffffffffffff60a01b825416179055847fddf252ad1be2c89b69c2b068fc378daa952ba7f163c4a11628f55a4df523b3ef5f80a46001600160a01b0316808303611c2857505050565b6364283d7b60e01b5f5260045260245260445260645ffd5b5f82815260046020526040902080546001600160a01b0319169055845f52600360205260405f205f198154019055611bb8565b90915080611cb7575b15611c895782905f611bb1565b8284611ca157637e27328960e01b5f5260045260245ffd5b63177e802f60e01b5f523360045260245260445ffd5b503384148015611ce6575b80611c7c57505f838152600460205260409020546001600160a01b03163314611c7c565b505f84815260056020908152604080832033845290915290205460ff16611cc2565b15611d0f57565b60405162461bcd60e51b815260206004820152600f60248201526e2737ba103a37b5b2b71037bbb732b960891b6044820152606490fd5b919091611d5281611db5565b505f526008602052611d69600560405f20016118fe565b5f5b8151811015611dad5760208160051b8301015160208151910120611d903685876118b1565b6020815191012014611da457600101611d6b565b50505050600190565b505050505f90565b5f818152600260205260409020546001600160a01b0316908115611dd7575090565b637e27328960e01b5f5260045260245ffd5b6006546001600160a01b03163303611dfd57565b63118cdaa760e01b5f523360045260245ffd5b823b611e1e575b5050505050565b604051630a85bd0160e11b81526001600160a01b039182166004820152918116602483015260448201939093526080606482015291169160209082908190611e6a90608483019061158f565b03815f865af15f9181611f01575b50611ecd57503d15611ec6573d611e8e81611896565b90611e9c60405192836116c9565b81523d5f602083013e5b80519081611ec15782633250574960e11b5f5260045260245ffd5b602001fd5b6060611ea6565b6001600160e01b03191663757a42ff60e11b01611eef57505f80808080611e17565b633250574960e11b5f5260045260245ffd5b9091506020813d602011611f3e575b81611f1d602093836116c9565b810103126101c057516001600160e01b0319811681036101c057905f611e78565b3d9150611f1056fea2646970667358221220c232b77d5dabbc68b1e06f82dcea4e79e37c8ddb257c0a982f199ab605a56d4664736f6c634300081c0033",
  "linkReferences": {},
  "deployedLinkReferences": {},
  "immutableReferences": {},
  "inputSourceName": "project/contracts/AgentNFT.sol",
  "buildInfoId": "solc-0_8_28-0e65c18c86f18ad5e22cb80e1d7729eb09de73d7"
}