{
  "_format": "hh3-artifact-1",
  "contractName": "AgentMarketplace",
  "sourceName": "contracts/AgentMarketplace.sol",
  "abi": [
    {
      "inputs": [
        {
          "internalType": "address",
          "name": "_agentNFT",
          "type": "address"
        },
        {
          "internalType": "address",
          "name": "_performanceOracle",
          "type": "address"
        },
        {
          "internalType": "address",
          "name": "_platformFeeRecipient",
          "type": "address"
        }
      ],
      "stateMutability": "nonpayable",
      "type": "constructor"
    },
    {
      "inputs": [
        {
          "internalType": "address",
          "name": "owner",
          "type": "address"
        }
      ],
      "name": "OwnableInvalidOwner",
      "type": "error"
    },
    {
      "inputs": [
        {
          "internalType": "address",
          "name": "account",
          "type": "address"
        }
      ],
      "name": "OwnableUnauthorizedAccount",
      "type": "error"
    },
    {
      "inputs": [],
      "name": "ReentrancyGuardReentrantCall",
      "type": "error"
    },
    {
      "anonymous": false,
      "inputs": [
        {
          "indexed": true,
          "internalType": "uint256",
          "name": "tokenId",
          "type": "uint256"
        },
        {
          "indexed": false,
          "internalType": "uint256",
          "name": "timestamp",
          "type": "uint256"
        }
      ],
      "name": "CodeVerified",
      "type": "event"
    },
    {
      "anonymous": false,
      "inputs": [
        {
          "indexed": true,
          "internalType": "uint256",
          "name": "tokenId",
          "type": "uint256"
        },
        {
          "indexed": true,
          "internalType": "address",
          "name": "buyer",
          "type": "address"
        },
        {
          "indexed": false,
          "internalType": "uint256",
          "name": "timestamp",
          "type": "uint256"
        }
      ],
      "name": "DisputeResolvedForBuyer",
      "type": "event"
    },
    {
      "anonymous": false,
      "inputs": [
        {
          "indexed": true,
          "internalType": "uint256",
          "name": "tokenId",
          "type": "uint256"
        },
        {
          "indexed": true,
          "internalType": "address",
          "name": "seller",
          "type": "address"
        },
        {
          "indexed": false,
          "internalType": "uint256",
          "name": "timestamp",
          "type": "uint256"
        }
      ],
      "name": "DisputeResolvedForSeller",
      "type": "event"
    },
    {
      "anonymous": false,
      "inputs": [
        {
          "indexed": true,
          "internalType": "uint256",
          "name": "tokenId",
          "type": "uint256"
        },
        {
          "indexed": true,
          "internalType": "address",
          "name": "buyer",
          "type": "address"
        },
        {
          "indexed": false,
          "internalType": "string",
          "name": "reason",
          "type": "string"
        },
        {
          "indexed": false,
          "internalType": "uint256",
          "name": "timestamp",
          "type": "uint256"
        }
      ],
      "name": "EscrowDisputed",
      "type": "event"
    },
    {
      "anonymous": false,
      "inputs": [
        {
          "indexed": true,
          "internalType": "uint256",
          "name": "tokenId",
          "type": "uint256"
        },
        {
          "indexed": true,
          "internalType": "address",
          "name": "seller",
          "type": "address"
        },
        {
          "indexed": false,
          "internalType": "uint256",
          "name": "amount",
          "type": "uint256"
        },
        {
          "indexed": false,
          "internalType": "uint256",
          "name": "timestamp",
          "type": "uint256"
        }
      ],
      "name": "EscrowReleased",
      "type": "event"
    },
    {
      "anonymous": false,
      "inputs": [
        {
          "indexed": true,
          "internalType": "uint256",
          "name": "tokenId",
          "type": "uint256"
        },
        {
          "indexed": true,
          "internalType": "address",
          "name": "seller",
          "type": "address"
        },
        {
          "indexed": false,
          "internalType": "uint256",
          "name": "timestamp",
          "type": "uint256"
        }
      ],
      "name": "ListingCancelled",
      "type": "event"
    },
    {
      "anonymous": false,
      "inputs": [
        {
          "indexed": true,
          "internalType": "uint256",
          "name": "tokenId",
          "type": "uint256"
        },
        {
          "indexed": true,
          "internalType": "address",
          "name": "seller",
          "type": "address"
        },
        {
          "indexed": false,
          "internalType": "uint256",
          "name": "price",
          "type": "uint256"
        },
        {
          "indexed": false,
          "internalType": "string",
          "name": "ipfsCodeHash",
          "type": "string"
        },
        {
          "indexed": false,
          "internalType": "uint256",
          "name": "timestamp",
          "type": "uint256"
        }
      ],
      "name": "ListingCreated",
      "type": "event"
    },
    {
      "anonymous": false,
      "inputs": [
        {
          "indexed": true,
          "internalType": "address",
          "name": "previousOwner",
          "type": "address"
        },
        {
          "indexed": true,
          "internalType": "address",
          "name": "newOwner",
          "type": "address"
        }
      ],
      "name": "OwnershipTransferred",
      "type": "event"
    },
    {
      "anonymous": false,
      "inputs": [
        {
          "indexed": true,
          "internalType": "uint256",
          "name": "tokenId",
          "type": "uint256"
        },
        {
          "indexed": true,
          "internalType": "address",
          "name": "seller",
          "type": "address"
        },
        {
          "indexed": true,
          "internalType": "address",
          "name": "buyer",
          "type": "address"
        },
        {
          "indexed": false,
          "internalType": "uint256",
          "name": "price",
          "type": "uint256"
        },
        {
          "indexed": false,
          "internalType": "bool",
          "name": "escrowed",
          "type": "bool"
        },
        {
          "indexed": false,
          "internalType": "uint256",
          "name": "timestamp",
          "type": "uint256"
        }
      ],
      "name": "SaleExecuted",
      "type": "event"
    },
    {
      "anonymous": false,
      "inputs": [
        {
          "indexed": true,
          "internalType": "uint256",
          "name": "tokenId",
          "type": "uint256"
        },
        {
          "indexed": true,
          "internalType": "address",
          "name": "seller",
          "type": "address"
        },
        {
          "indexed": true,
          "internalType": "address",
          "name": "buyer",
          "type": "address"
        },
        {
          "indexed": false,
          "internalType": "uint256",
          "name": "amount",
          "type": "uint256"
        },
        {
          "indexed": false,
          "internalType": "uint256",
          "name": "releaseTime",
          "type": "uint256"
        }
      ],
      "name": "SaleInEscrow",
      "type": "event"
    },
    {
      "inputs": [],
      "name": "BASIS_POINTS",
      "outputs": [
        {
          "internalType": "uint256",
          "name": "",
          "type": "uint256"
        }
      ],
      "stateMutability": "view",
      "type": "function"
    },
    {
      "inputs": [],
      "name": "ESCROW_PERIOD",
      "outputs": [
        {
          "internalType": "uint256",
          "name": "",
          "type": "uint256"
        }
      ],
      "stateMutability": "view",
      "type": "function"
    },
    {
      "inputs": [],
      "name": "ESCROW_THRESHOLD",
      "outputs": [
        {
          "internalType": "uint256",
          "name": "",
          "type": "uint256"
        }
      ],
      "stateMutability": "view",
      "type": "function"
    },
    {
      "inputs": [],
      "name": "agentNFT",
      "outputs": [
        {
          "internalType": "contract AgentNFT",
          "name": "",
          "type": "address"
        }
      ],
      "stateMutability": "view",
      "type": "function"
    },
    {
      "inputs": [
        {
          "internalType": "uint256",
          "name": "tokenId",
          "type": "uint256"
        }
      ],
      "name": "buy",
      "outputs": [],
      "stateMutability": "payable",
      "type": "function"
    },
    {
      "inputs": [],
      "name": "buyerFeePercent",
      "outputs": [
        {
          "internalType": "uint256",
          "name": "",
          "type": "uint256"
        }
      ],
      "stateMutability": "view",
      "type": "function"
    },
    {
      "inputs": [
        {
          "internalType": "uint256",
          "name": "tokenId",
          "type": "uint256"
        }
      ],
      "name": "cancelListing",
      "outputs": [],
      "stateMutability": "nonpayable",
      "type": "function"
    },
    {
      "inputs": [
        {
          "internalType": "uint256",
          "name": "tokenId",
          "type": "uint256"
        },
        {
          "internalType": "string",
          "name": "reason",
          "type": "string"
        }
      ],
      "name": "disputeEscrow",
      "outputs": [],
      "stateMutability": "nonpayable",
      "type": "function"
    },
    {
      "inputs": [
        {
          "internalType": "uint256",
          "name": "tokenId",
          "type": "uint256"
        },
        {
          "internalType": "uint256",
          "name": "price",
          "type": "uint256"
        },
        {
          "internalType": "string",
          "name": "ipfsCodeHash",
          "type": "string"
        }
      ],
      "name": "list",
      "outputs": [],
      "stateMutability": "nonpayable",
      "type": "function"
    },
    {
      "inputs": [],
      "name": "listingFeePercent",
      "outputs": [
        {
          "internalType": "uint256",
          "name": "",
          "type": "uint256"
        }
      ],
      "stateMutability": "view",
      "type": "function"
    },
    {
      "inputs": [
        {
          "internalType": "uint256",
          "name": "",
          "type": "uint256"
        }
      ],
      "name": "listings",
      "outputs": [
        {
          "internalType": "address",
          "name": "seller",
          "type": "address"
        },
        {
          "internalType": "uint256",
          "name": "price",
          "type": "uint256"
        },
        {
          "internalType": "string",
          "name": "ipfsCodeHash",
          "type": "string"
        },
        {
          "internalType": "bool",
          "name": "codeVerified",
          "type": "bool"
        },
        {
          "internalType": "uint256",
          "name": "listedAt",
          "type": "uint256"
        },
        {
          "internalType": "bool",
          "name": "active",
          "type": "bool"
        }
      ],
      "stateMutability": "view",
      "type": "function"
    },
    {
      "inputs": [],
      "name": "owner",
      "outputs": [
        {
          "internalType": "address",
          "name": "",
          "type": "address"
        }
      ],
      "stateMutability": "view",
      "type": "function"
    },
    {
      "inputs": [],
      "name": "performanceOracle",
      "outputs": [
        {
          "internalType": "contract PerformanceOracle",
          "name": "",
          "type": "address"
        }
      ],
      "stateMutability": "view",
      "type": "function"
    },
    {
      "inputs": [],
      "name": "platformFeeRecipient",
      "outputs": [
        {
          "internalType": "address",
          "name": "",
          "type": "address"
        }
      ],
      "stateMutability": "view",
      "type": "function"
    },
    {
      "inputs": [
        {
          "internalType": "uint256",
          "name": "tokenId",
          "type": "uint256"
        }
      ],
      "name": "releaseEscrow",
      "outputs": [],
      "stateMutability": "nonpayable",
      "type": "function"
    },
    {
      "inputs": [],
      "name": "renounceOwnership",
      "outputs": [],
      "stateMutability": "nonpayable",
      "type": "function"
    },
    {
      "inputs": [
        {
          "internalType": "uint256",
          "name": "tokenId",
          "type": "uint256"
        },
        {
          "internalType": "bool",
          "name": "favorBuyer",
          "type": "bool"
        }
      ],
      "name": "resolveDispute",
      "outputs": [],
      "stateMutability": "nonpayable",
      "type": "function"
    },
    {
      "inputs": [
        {
          "internalType": "uint256",
          "name": "",
          "type": "uint256"
        }
      ],
      "name": "saleEscrows",
      "outputs": [
        {
          "internalType": "address",
          "name": "seller",
          "type": "address"
        },
        {
          "internalType": "address",
          "name": "buyer",
          "type": "address"
        },
        {
          "internalType": "uint256",
          "name": "amount",
          "type": "uint256"
        },
        {
          "internalType": "uint256",
          "name": "releaseTime",
          "type": "uint256"
        },
        {
          "internalType": "bool",
          "name": "released",
          "type": "bool"
        },
        {
          "internalType": "bool",
          "name": "disputed",
          "type": "bool"
        }
      ],
      "stateMutability": "view",
      "type": "function"
    },
    {
      "inputs": [
        {
          "internalType": "address",
          "name": "",
          "type": "address"
        }
      ],
      "name": "sellerCompletedSales",
      "outputs": [
        {
          "internalType": "uint256",
          "name": "",
          "type": "uint256"
        }
      ],
      "stateMutability": "view",
      "type": "function"
    },
    {
      "inputs": [
        {
          "internalType": "address",
          "name": "newOwner",
          "type": "address"
        }
      ],
      "name": "transferOwnership",
      "outputs": [],
      "stateMutability": "nonpayable",
      "type": "function"
    },
    {
      "inputs": [
        {
          "internalType": "address",
          "name": "newRecipient",
          "type": "address"
        }
      ],
      "name": "updateFeeRecipient",
      "outputs": [],
      "stateMutability": "nonpayable",
      "type": "function"
    },
    {
      "inputs": [
        {
          "internalType": "uint256",
          "name": "newListingFee",
          "type": "uint256"
        },
        {
          "internalType": "uint256",
          "name": "newBuyerFee",
          "type": "uint256"
        }
      ],
      "name": "updateFees",
      "outputs": [],
      "stateMutability": "nonpayable",
      "type": "function"
    },
    {
      "inputs": [
        {
          "internalType": "uint256",
          "name": "tokenId",
          "type": "uint256"
        }
      ],
      "name": "verifyCode",
      "outputs": [],
      "stateMutability": "nonpayable",
      "type": "function"
    }
  ],
  "bytecode": "0x60c03461022557601f611c3038819003918201601f19168301916001600160401b0383118484101761022957808492606094604052833981010312610225576100478161023d565b9061006060406100596020840161023d565b920161023d565b9060015f5533156102125760018054336001600160a01b0319821681179092556040519491906001600160a01b03167f8be0079c531659141344cd1fd0a4f28419497f9722a3daafe3b4186f6b6457e05f80a361012c60035560c86004556001600160a01b03169283156101d057506001600160a01b031690811561018b576001600160a01b03169182156101465760805260a052600280546001600160a01b0319169190911790556040516119de9081610252823960805181818161067501528181610d3601528181610f770152611565015260a05181818161100801526116660152f35b60405162461bcd60e51b815260206004820152601560248201527f496e76616c69642066656520726563697069656e7400000000000000000000006044820152606490fd5b60405162461bcd60e51b815260206004820152601660248201527f496e76616c6964204f7261636c652061646472657373000000000000000000006044820152606490fd5b62461bcd60e51b815260206004820152601860248201527f496e76616c6964204167656e744e4654206164647265737300000000000000006044820152606490fd5b631e4fbdf760e01b5f525f60045260245ffd5b5f80fd5b634e487b7160e01b5f52604160045260245ffd5b51906001600160a01b03821682036102255756fe6080806040526004361015610012575f80fd5b5f905f3560e01c908163185685d41461165457508063305a67a8146115185780633094afd9146114db57806333b80a9614610f2957806334b25ee214610d655780633fd773e914610d205780636151ff2e14610d025780636db7943714610c51578063715018a614610bf45780638da5cb5b14610bcb5780639f5644fd14610a84578063bc1b849814610a05578063d75383d1146109e9578063d96a094a14610576578063de74e57b146104d2578063e0fc73a7146104b4578063e1f1c4a714610497578063eb01fb8114610479578063eb13554f14610450578063ec273590146103d7578063ed65316414610233578063f160d369146101ac5763f2fde38b1461011b575f80fd5b346101a95760203660031901126101a9576004356001600160a01b038116908190036101a757610149611963565b801561019357600180546001600160a01b0319811683179091556001600160a01b03167f8be0079c531659141344cd1fd0a4f28419497f9722a3daafe3b4186f6b6457e08380a380f35b631e4fbdf760e01b82526004829052602482fd5b505b80fd5b50346101a95760203660031901126101a9576004356001600160a01b038116908190036101a7576101db611963565b80156101fc576bffffffffffffffffffffffff60a01b600254161760025580f35b60405162461bcd60e51b815260206004820152600f60248201526e496e76616c6964206164647265737360881b6044820152606490fd5b50346101a95760203660031901126101a95760043561025061198a565b8082526006602052604082209060048201805461027060ff821615611862565b60ff8160081c166103a2576003840154421061035d5760ff1916600117905581546001600160a01b0316835260076020526040832080546102b0906118a1565b905560018060a01b03825416918380808060028501968754905af16102d36118c3565b501561031f57549154604080519182524260208301526001600160a01b03909316927f07dd78b97459a0754e75d3d53bbd26afd8a683f317c40b50eea07d05c49f966b91a36001815580f35b60405162461bcd60e51b815260206004820152601660248201527514995b19585cd9481c185e5b595b9d0819985a5b195960521b6044820152606490fd5b60405162461bcd60e51b815260206004820152601760248201527f457363726f7720706572696f64206e6f7420656e6465640000000000000000006044820152606490fd5b60405162461bcd60e51b815260206004820152600d60248201526c556e646572206469737075746560981b6044820152606490fd5b50346101a95760203660031901126101a957604060c091600435815260066020522060ff60018060a01b038254169160018060a01b0360018201541690600281015460046003830154920154926040519586526020860152604085015260608401528181161515608084015260081c16151560a0820152f35b50346101a957806003193601126101a9576002546040516001600160a01b039091168152602090f35b50346101a957806003193601126101a957602060405162093a808152f35b50346101a957806003193601126101a95760206040516127108152f35b50346101a957806003193601126101a9576020600454604051908152f35b50346101a95760203660031901126101a9576004358152600560205260e06040822091602060018060a01b03845416916001850154946105146002820161174d565b9160ff6003830154169060ff60056004850154940154169360405198899788528688015260c0604088015280519586918260c08a0152018888015e858501870152151560608501526080840152151560a0830152601f01601f19168101030190f35b5060203660031901126101a95760043561058e61198a565b80825260056020526040822090604051906105a8826116fb565b82546001600160a01b03168252600183015460208301908152926105ce6002820161174d565b604084015261060560ff600581600385015416936060870194151585526004810154608088015201541615158060a08601526117ed565b51156109b05761271061061c845160035490611936565b049261271061062f825160045490611936565b049261063c848351611949565b908134106109745760018060a01b039051169361065a868451611956565b848852600560208190526040892001805460ff1916905595877f00000000000000000000000000000000000000000000000000000000000000006001600160a01b0316803b156101a7576040516323b872dd60e01b8152306004820152336024820152604481018890529082908290606490829084905af1801561096957610950575b5086905260076020526003604089205410968887895f1461091257505062093a8042018042116108fe576108028a94859485948594858c6107b48f60049060405190610728826116fb565b815233602080830191825260408084018a8152606085018a8152608086018a815260a087018b8152998b52600690945291909820935184546001600160a01b039182166001600160a01b03199182161786559351600186018054919092169416939093179092559551600283015551600382015593519301805460ff191693151560ff16939093178355565b51151561ff0082549160081b169061ff00191617905560405191825260208201528b8b7f8192a2be077f5af6b1fac759b5d1ae8f0057d5007e0973424892373e1ab7c90a60403394a4611949565b6002546001600160a01b03165af16108186118c3565b50156108c457808691341161086a575b5050519260405193845260208401524260408401527ffb80f5a1f3de2d4039c6280f1cdb5ab4fd0546ace69a1eb80b0f2e711e5b1a4e60603394a46001815580f35b8180610877819334611956565b335af16108826118c3565b501561088f57845f610828565b60405162461bcd60e51b815260206004820152600d60248201526c1499599d5b990819985a5b1959609a1b6044820152606490fd5b60405162461bcd60e51b8152602060048201526012602482015271119959481c185e5b595b9d0819985a5b195960721b6044820152606490fd5b634e487b7160e01b8a52601160045260248afd5b81948294610933848080808099610802985af161092d6118c3565b506118f2565b8a845260076020526040842061094981546118a1565b9055611949565b8161095a9161172b565b61096557875f6106dd565b8780fd5b6040513d84823e3d90fd5b60405162461bcd60e51b8152602060048201526014602482015273125b9cdd59999a58da595b9d081c185e5b595b9d60621b6044820152606490fd5b60405162461bcd60e51b815260206004820152601160248201527010dbd919481b9bdd081d995c9a599a5959607a1b6044820152606490fd5b50346101a957806003193601126101a957602060405160038152f35b50346101a95760203660031901126101a957600435610a22611963565b8082526005602052610a3d60ff6005604085200154166117ed565b808252600560205260036040832001600160ff198254161790557f54cbe7c277a4f880a17cccdd2676b654e91fb1c9632dce66a4cd4edc95c915976020604051428152a280f35b50346101a95760403660031901126101a95760043560243567ffffffffffffffff8111610bc757610ab9903690600401611695565b82845260066020526040842060018101546001600160a01b03169392909133859003610b8957600483016003815494610af560ff871615611862565b0154421015610b4e576101007f63fb99712cb03bc92fe352d93d39fed1d4079892d6c5a4f4a1a615fbc935e1449461ff001916179055610b42604051928392604084526040840191611842565b4260208301520390a380f35b60405162461bcd60e51b8152602060048201526013602482015272115cd8dc9bddc81c195c9a5bd908195b991959606a1b6044820152606490fd5b60405162461bcd60e51b81526020600482015260166024820152754f6e6c792062757965722063616e206469737075746560501b6044820152606490fd5b8280fd5b50346101a957806003193601126101a9576001546040516001600160a01b039091168152602090f35b50346101a957806003193601126101a957610c0d611963565b600180546001600160a01b0319811690915581906001600160a01b03167f8be0079c531659141344cd1fd0a4f28419497f9722a3daafe3b4186f6b6457e08280a380f35b50346101a95760403660031901126101a957602435600435610c71611963565b6103e88111610cc6576103e88211610c8c5760035560045580f35b60405162461bcd60e51b8152602060048201526012602482015271084eaf2cae440cccaca40e8dede40d0d2ced60731b6044820152606490fd5b60405162461bcd60e51b8152602060048201526014602482015273098d2e6e8d2dcce40cccaca40e8dede40d0d2ced60631b6044820152606490fd5b50346101a957806003193601126101a9576020600354604051908152f35b50346101a957806003193601126101a9576040517f00000000000000000000000000000000000000000000000000000000000000006001600160a01b03168152602090f35b50346101a95760403660031901126101a9576004356024358015158103610bc757610d8e611963565b610d9661198a565b8183526006602052604083209060048201805460ff8160081c1615610ef05780610dc560ff6001931615611862565b60ff191617905515610e7257828080806001850194600260018060a01b03875416910154905af1610df46118c3565b5015610e375760018060a01b03905416907f5370e21adbfcb165cfc37fb1dc9b80fc9d7578af47f8e1a62e24a76e70100c656020604051428152a35b6001815580f35b60405162461bcd60e51b8152602060048201526013602482015272109d5e595c881c99599d5b990819985a5b1959606a1b6044820152606490fd5b80546001600160a01b031683526007602052604083208054610e93906118a1565b9055610eb68380808060018060a01b038654166002870154905af161092d6118c3565b60018060a01b03905416907f9ed7203ec42c2da446b2ea2d68e4886b807127c233b22224684b1dd09cb166426020604051428152a3610e30565b60405162461bcd60e51b81526020600482015260116024820152704e6f20616374697665206469737075746560781b6044820152606490fd5b50346101a95760603660031901126101a95760243560043560443567ffffffffffffffff81116114d757610f61903690600401611695565b6040516331a9108f60e11b8152600481018490527f00000000000000000000000000000000000000000000000000000000000000006001600160a01b031690602081602481855afa9081156113af578791611495575b50336001600160a01b03909116036114605784156114275781156113f057838652600560205260ff6005604088200154166113ba5760405163abbdbadf60e01b8152600481018590526020816024817f00000000000000000000000000000000000000000000000000000000000000006001600160a01b03165afa9081156113af578791611370575b501561132b578086913b156101a7576040516323b872dd60e01b8152336004820152306024820152604481018690529082908290606490829084905af1801561096957611312575b5050604051611096816116fb565b338152602081018581526110a983611826565b6110b6604051918261172b565b8381523684860111610965578385602083013787602085830101526040830190815260608301888152608084019142835260a085019360018552888b52600560205260408b209560018060a01b039060018060a01b03905116166bffffffffffffffffffffffff60a01b87541617865551600186015560028501905180519067ffffffffffffffff82116112fe5761114e83546116c3565b601f81116112b4575b506020908c601f841160011461121f5794600594846112049b99956111ed99956111d1957febe6a515afa88c30e711ca578a493fee74a53da8de9afed277c3a885a8fa284c9f9d9a92611214575b50508160011b915f199060031b1c19161790555b511515600386019060ff801983541691151516179055565b51600484015551151591019060ff801983541691151516179055565b604051958652606060208701526060860191611842565b924260408201528033940390a380f35b015190505f806111a5565b9190601f198416858452828420935b81811061129c5750946001856111ed99956111d1957febe6a515afa88c30e711ca578a493fee74a53da8de9afed277c3a885a8fa284c9f9d9a956112049f9d9960059b10611284575b505050811b0190556111b9565b01515f1960f88460031b161c191690555f8080611277565b9293602060018192878601518155019501930161122e565b838d5260208d20601f840160051c810191602085106112f4575b601f0160051c01908d905b8281106112e7575050611157565b6001918155018d906112d9565b90915081906112ce565b634e487b7160e01b8c52604160045260248cfd5b8161131c9161172b565b61132757845f611088565b8480fd5b60405162461bcd60e51b815260206004820152601a60248201527f4e6f20726563656e7420706572666f726d616e636520646174610000000000006044820152606490fd5b90506020813d6020116113a7575b8161138b6020938361172b565b810103126113a3575180151581036113a3575f611040565b8680fd5b3d915061137e565b6040513d89823e3d90fd5b60405162461bcd60e51b815260206004820152600e60248201526d105b1c9958591e481b1a5cdd195960921b6044820152606490fd5b60405162461bcd60e51b815260206004820152600f60248201526e08adae0e8f240c6dec8ca40d0c2e6d608b1b6044820152606490fd5b60405162461bcd60e51b815260206004820152601160248201527005072696365206d757374206265203e203607c1b6044820152606490fd5b60405162461bcd60e51b815260206004820152600d60248201526c2737ba1027232a1037bbb732b960991b6044820152606490fd5b90506020813d6020116114cf575b816114b06020938361172b565b810103126113a357516001600160a01b03811681036113a3575f610fb7565b3d91506114a3565b8380fd5b50346101a95760203660031901126101a9576004356001600160a01b038116908190036101a7578160409160209352600783522054604051908152f35b503461161e57602036600319011261161e57600435805f52600560205260405f20600581019081549061154d60ff83166117ed565b546001600160a01b031633036116225760ff191690557f00000000000000000000000000000000000000000000000000000000000000006001600160a01b0316803b1561161e576040516323b872dd60e01b815230600482015233602482015260448101839052905f908290606490829084905af18015611613576115fe575b50604051904282527fffadd0f4e7d64abb82ef3d770cd739a881c221c0b5b162238659e6567216abe260203393a380f35b61160b9192505f9061172b565b5f905f6115cd565b6040513d5f823e3d90fd5b5f80fd5b60405162461bcd60e51b815260206004820152600a6024820152692737ba1039b2b63632b960b11b6044820152606490fd5b3461161e575f36600319011261161e577f00000000000000000000000000000000000000000000000000000000000000006001600160a01b03168152602090f35b9181601f8401121561161e5782359167ffffffffffffffff831161161e576020838186019501011161161e57565b90600182811c921680156116f1575b60208310146116dd57565b634e487b7160e01b5f52602260045260245ffd5b91607f16916116d2565b60c0810190811067ffffffffffffffff82111761171757604052565b634e487b7160e01b5f52604160045260245ffd5b90601f8019910116810190811067ffffffffffffffff82111761171757604052565b9060405191825f825492611760846116c3565b80845293600181169081156117cb5750600114611787575b506117859250038361172b565b565b90505f9291925260205f20905f915b8183106117af575050906020611785928201015f611778565b6020919350806001915483858901015201910190918492611796565b90506020925061178594915060ff191682840152151560051b8201015f611778565b156117f457565b60405162461bcd60e51b815260206004820152600a602482015269139bdd081b1a5cdd195960b21b6044820152606490fd5b67ffffffffffffffff811161171757601f01601f191660200190565b908060209392818452848401375f828201840152601f01601f1916010190565b1561186957565b60405162461bcd60e51b815260206004820152601060248201526f105b1c9958591e481c995b19585cd95960821b6044820152606490fd5b5f1981146118af5760010190565b634e487b7160e01b5f52601160045260245ffd5b3d156118ed573d906118d482611826565b916118e2604051938461172b565b82523d5f602084013e565b606090565b156118f957565b60405162461bcd60e51b815260206004820152601560248201527414d95b1b195c881c185e5b595b9d0819985a5b1959605a1b6044820152606490fd5b818102929181159184041417156118af57565b919082018092116118af57565b919082039182116118af57565b6001546001600160a01b0316330361197757565b63118cdaa760e01b5f523360045260245ffd5b60025f54146119995760025f55565b633ee5aeb560e01b5f5260045ffdfea2646970667358221220a32c473271f1edfbb65a66addf9e01d8607150fe8a4dd8cb7fc9a28ee568eb7664736f6c634300081c0033",
  "linkReferences": {},
  "deployedLinkReferences": {},
  "immutableReferences": {
    "6614": [
      {
        "length": 32,
        "start": 1653
      },
      {
        "length": 32,
        "start": 3382
      },
      {
        "length": 32,
        "start": 3959
      },
      {
        "length": 32,
        "start": 5477
      }
    ],
    "6617": [
      {
        "length": 32,
        "start": 4104
      },
      {
        "length": 32,
        "start": 5734
      }
    ]
  },
  "inputSourceName": "project/contracts/AgentMarketplace.sol",
  "buildInfoId": "solc-0_8_28-0e65c18c86f18ad5e22cb80e1d7729eb09de73d7"
}