{
  "_format": "hh3-artifact-1",
  "contractName": "PerformanceOracle",
  "sourceName": "contracts/PerformanceOracle.sol",
  "abi": [
    {
      "inputs": [
        {
          "internalType": "address",
          "name": "_agentNFT",
          "type": "address"
        }
      ],
      "stateMutability": "nonpayable",
      "type": "constructor"
    },
    {
      "anonymous": false,
      "inputs": [
        {
          "indexed": true,
          "internalType": "uint256",
          "name": "tokenId",
          "type": "uint256"
        },
        {
          "indexed": true,
          "internalType": "address",
          "name": "reportedBy",
          "type": "address"
        },
        {
          "indexed": false,
          "internalType": "uint256",
          "name": "totalRevenue",
          "type": "uint256"
        },
        {
          "indexed": false,
          "internalType": "uint256",
          "name": "tradesExecuted",
          "type": "uint256"
        },
        {
          "indexed": false,
          "internalType": "uint256",
          "name": "winRate",
          "type": "uint256"
        },
        {
          "indexed": false,
          "internalType": "uint256",
          "name": "timestamp",
          "type": "uint256"
        }
      ],
      "name": "MetricsReported",
      "type": "event"
    },
    {
      "inputs": [],
      "name": "agentNFT",
      "outputs": [
        {
          "internalType": "contract AgentNFT",
          "name": "",
          "type": "address"
        }
      ],
      "stateMutability": "view",
      "type": "function"
    },
    {
      "inputs": [
        {
          "internalType": "uint256",
          "name": "tokenId",
          "type": "uint256"
        }
      ],
      "name": "getMetrics",
      "outputs": [
        {
          "components": [
            {
              "internalType": "uint256",
              "name": "totalRevenue",
              "type": "uint256"
            },
            {
              "internalType": "uint256",
              "name": "tradesExecuted",
              "type": "uint256"
            },
            {
              "internalType": "uint256",
              "name": "winRate",
              "type": "uint256"
            },
            {
              "internalType": "uint256",
              "name": "lastUpdated",
              "type": "uint256"
            },
            {
              "internalType": "bool",
              "name": "hasData",
              "type": "bool"
            }
          ],
          "internalType": "struct PerformanceOracle.PerformanceMetrics",
          "name": "",
          "type": "tuple"
        }
      ],
      "stateMutability": "view",
      "type": "function"
    },
    {
      "inputs": [
        {
          "internalType": "uint256",
          "name": "tokenId",
          "type": "uint256"
        }
      ],
      "name": "hasPositivePerformance",
      "outputs": [
        {
          "internalType": "bool",
          "name": "",
          "type": "bool"
        }
      ],
      "stateMutability": "view",
      "type": "function"
    },
    {
      "inputs": [
        {
          "internalType": "uint256",
          "name": "tokenId",
          "type": "uint256"
        }
      ],
      "name": "hasRecentMetrics",
      "outputs": [
        {
          "internalType": "bool",
          "name": "",
          "type": "bool"
        }
      ],
      "stateMutability": "view",
      "type": "function"
    },
    {
      "inputs": [
        {
          "internalType": "uint256",
          "name": "",
          "type": "uint256"
        }
      ],
      "name": "metrics",
      "outputs": [
        {
          "internalType": "uint256",
          "name": "totalRevenue",
          "type": "uint256"
        },
        {
          "internalType": "uint256",
          "name": "tradesExecuted",
          "type": "uint256"
        },
        {
          "internalType": "uint256",
          "name": "winRate",
          "type": "uint256"
        },
        {
          "internalType": "uint256",
          "name": "lastUpdated",
          "type": "uint256"
        },
        {
          "internalType": "bool",
          "name": "hasData",
          "type": "bool"
        }
      ],
      "stateMutability": "view",
      "type": "function"
    },
    {
      "inputs": [
        {
          "internalType": "uint256",
          "name": "tokenId",
          "type": "uint256"
        },
        {
          "internalType": "uint256",
          "name": "totalRevenue",
          "type": "uint256"
        },
        {
          "internalType": "uint256",
          "name": "tradesExecuted",
          "type": "uint256"
        },
        {
          "internalType": "uint256",
          "name": "winRate",
          "type": "uint256"
        }
      ],
      "name": "reportMetrics",
      "outputs": [],
      "stateMutability": "nonpayable",
      "type": "function"
    },
    {
      "inputs": [
        {
          "internalType": "uint256",
          "name": "tokenId",
          "type": "uint256"
        }
      ],
      "name": "timeSinceLastUpdate",
      "outputs": [
        {
          "internalType": "uint256",
          "name": "",
          "type": "uint256"
        }
      ],
      "stateMutability": "view",
      "type": "function"
    }
  ],
  "bytecode": "0x60a0346100be57601f61063738819003918201601f19168301916001600160401b038311848410176100c2578084926020946040528339810103126100be57516001600160a01b038116908190036100be5780156100795760805260405161056090816100d7823960805181818161012701526104210152f35b60405162461bcd60e51b815260206004820152601860248201527f496e76616c6964204167656e744e4654206164647265737300000000000000006044820152606490fd5b5f80fd5b634e487b7160e01b5f52604160045260245ffdfe6080806040526004361015610012575f80fd5b5f3560e01c9081633fd773e91461040f575080636d9aac62146103b55780639a8e4495146103055780639e844bab146100e65780639f182431146100bb578063abbdbadf146100935763bd2d665714610069575f80fd5b3461008f57602036600319011261008f5760206100876004356104f3565b604051908152f35b5f80fd5b3461008f57602036600319011261008f5760206100b160043561048d565b6040519015158152f35b3461008f57602036600319011261008f576004355f525f602052602060405f20541515604051908152f35b3461008f57608036600319011261008f5760043560243590604435606435906040516314f5b7a960e31b815283600482015260208160248160018060a01b037f0000000000000000000000000000000000000000000000000000000000000000165afa9081156102fa575f9161028e575b506001600160a01b031633036102495761271082116102115760405161017c81610450565b84815260046020820191838352604081018581526060820190428252608083019460018652885f525f60205260405f2093518455516001840155516002830155516003820155019051151560ff80198354169116179055604051938452602084015260408301524260608301527f90fd21c4f108520503c4bf4b738116fe013b886317ed8663baa827ce14a2130160803393a3005b60405162461bcd60e51b815260206004820152601060248201526f496e76616c69642077696e207261746560801b6044820152606490fd5b60405162461bcd60e51b815260206004820152601e60248201527f4f6e6c79207665726966696564206167656e742063616e207265706f727400006044820152606490fd5b905060203d6020116102f3575b601f8101601f1916820167ffffffffffffffff8111838210176102df5760209183916040528101031261008f57516001600160a01b038116810361008f5785610157565b634e487b7160e01b5f52604160045260245ffd5b503d61029b565b6040513d5f823e3d90fd5b3461008f57602036600319011261008f575f608060405161032581610450565b82815282602082015282604082015282606082015201526004355f525f60205260a060405f2060405161035781610450565b81549182825260018101546020830190815260028201549060408401918252608060ff600460038601549560608801968752015416940193151584526040519485525160208501525160408401525160608301525115156080820152f35b3461008f57602036600319011261008f576004355f525f60205260a060405f20805490600181015490600281015460ff60046003840154930154169260405194855260208501526040840152606083015215156080820152f35b3461008f575f36600319011261008f577f00000000000000000000000000000000000000000000000000000000000000006001600160a01b03168152602090f35b60a0810190811067ffffffffffffffff8211176102df57604052565b9190820391821161047957565b634e487b7160e01b5f52601160045260245ffd5b5f525f60205260405f206040516104a381610450565b81548152600182015460208201526002820154604082015260ff60046003840154938460608501520154161590608082159101526104ee576104e962093a80914261046c565b111590565b505f90565b805f525f60205260ff600460405f2001541615610524575f525f602052610521600360405f2001544261046c565b90565b505f199056fea26469706673582212203878bc105834a0314755ce9a042f80fe2677df4592ee5d5fe781ba125d22317364736f6c634300081c0033",
  "linkReferences": {},
  "deployedLinkReferences": {},
  "immutableReferences": {
    "8064": [
      {
        "length": 32,
        "start": 295
      },
      {
        "length": 32,
        "start": 1057
      }
    ]
  },
  "inputSourceName": "project/contracts/PerformanceOracle.sol",
  "buildInfoId": "solc-0_8_28-0e65c18c86f18ad5e22cb80e1d7729eb09de73d7"
}