{
  "_format": "hh3-artifact-1",
  "contractName": "RevenueDistributor",
  "sourceName": "contracts/RevenueDistributor.sol",
  "abi": [
    {
      "inputs": [
        {
          "internalType": "address",
          "name": "_agentNFT",
          "type": "address"
        },
        {
          "internalType": "uint256",
          "name": "_tokenId",
          "type": "uint256"
        }
      ],
      "stateMutability": "nonpayable",
      "type": "constructor"
    },
    {
      "inputs": [],
      "name": "ReentrancyGuardReentrantCall",
      "type": "error"
    },
    {
      "anonymous": false,
      "inputs": [
        {
          "indexed": true,
          "internalType": "address",
          "name": "pausedBy",
          "type": "address"
        },
        {
          "indexed": false,
          "internalType": "uint256",
          "name": "timestamp",
          "type": "uint256"
        }
      ],
      "name": "AgentPaused",
      "type": "event"
    },
    {
      "anonymous": false,
      "inputs": [
        {
          "indexed": true,
          "internalType": "address",
          "name": "unpausedBy",
          "type": "address"
        },
        {
          "indexed": false,
          "internalType": "uint256",
          "name": "timestamp",
          "type": "uint256"
        }
      ],
      "name": "AgentUnpaused",
      "type": "event"
    },
    {
      "anonymous": false,
      "inputs": [
        {
          "indexed": true,
          "internalType": "address",
          "name": "recipient",
          "type": "address"
        },
        {
          "indexed": false,
          "internalType": "uint256",
          "name": "amount",
          "type": "uint256"
        },
        {
          "indexed": false,
          "internalType": "uint256",
          "name": "timestamp",
          "type": "uint256"
        }
      ],
      "name": "EmergencyWithdraw",
      "type": "event"
    },
    {
      "anonymous": false,
      "inputs": [
        {
          "indexed": true,
          "internalType": "address",
          "name": "recipient",
          "type": "address"
        },
        {
          "indexed": false,
          "internalType": "uint256",
          "name": "amount",
          "type": "uint256"
        },
        {
          "indexed": false,
          "internalType": "uint256",
          "name": "timestamp",
          "type": "uint256"
        }
      ],
      "name": "RevenueDistributed",
      "type": "event"
    },
    {
      "anonymous": false,
      "inputs": [
        {
          "indexed": true,
          "internalType": "address",
          "name": "from",
          "type": "address"
        },
        {
          "indexed": false,
          "internalType": "uint256",
          "name": "amount",
          "type": "uint256"
        },
        {
          "indexed": false,
          "internalType": "uint256",
          "name": "timestamp",
          "type": "uint256"
        }
      ],
      "name": "RevenueReceived",
      "type": "event"
    },
    {
      "inputs": [],
      "name": "agentNFT",
      "outputs": [
        {
          "internalType": "contract IERC721",
          "name": "",
          "type": "address"
        }
      ],
      "stateMutability": "view",
      "type": "function"
    },
    {
      "inputs": [],
      "name": "agentPaused",
      "outputs": [
        {
          "internalType": "bool",
          "name": "",
          "type": "bool"
        }
      ],
      "stateMutability": "view",
      "type": "function"
    },
    {
      "inputs": [],
      "name": "canExecute",
      "outputs": [
        {
          "internalType": "bool",
          "name": "",
          "type": "bool"
        }
      ],
      "stateMutability": "view",
      "type": "function"
    },
    {
      "inputs": [],
      "name": "emergencyWithdraw",
      "outputs": [],
      "stateMutability": "nonpayable",
      "type": "function"
    },
    {
      "inputs": [],
      "name": "getBalance",
      "outputs": [
        {
          "internalType": "uint256",
          "name": "",
          "type": "uint256"
        }
      ],
      "stateMutability": "view",
      "type": "function"
    },
    {
      "inputs": [],
      "name": "getCurrentHolder",
      "outputs": [
        {
          "internalType": "address",
          "name": "",
          "type": "address"
        }
      ],
      "stateMutability": "view",
      "type": "function"
    },
    {
      "inputs": [],
      "name": "pauseAgent",
      "outputs": [],
      "stateMutability": "nonpayable",
      "type": "function"
    },
    {
      "inputs": [],
      "name": "tokenId",
      "outputs": [
        {
          "internalType": "uint256",
          "name": "",
          "type": "uint256"
        }
      ],
      "stateMutability": "view",
      "type": "function"
    },
    {
      "inputs": [],
      "name": "totalRevenueDistributed",
      "outputs": [
        {
          "internalType": "uint256",
          "name": "",
          "type": "uint256"
        }
      ],
      "stateMutability": "view",
      "type": "function"
    },
    {
      "inputs": [],
      "name": "unpauseAgent",
      "outputs": [],
      "stateMutability": "nonpayable",
      "type": "function"
    },
    {
      "stateMutability": "payable",
      "type": "receive"
    }
  ],
  "bytecode": "0x60c03461011b57601f610a1638819003918201601f19168301916001600160401b0383118484101761011f57808492604094855283398101031261011b5780516001600160a01b038116919082900361011b57602001519060015f5580156100d65760805260a05260ff19600154166001556040516108e290816101348239608051818181608d015281816102b1015281816103da01528181610552015281816105cc0152610731015260a051818181606101528181610285015281816103ae015281816105a0015281816106a801526107050152f35b60405162461bcd60e51b815260206004820152601360248201527f496e76616c6964204e46542061646472657373000000000000000000000000006044820152606490fd5b5f80fd5b634e487b7160e01b5f52604160045260245ffdfe60808060405260043610156101cb575b50361561001a575f80fd5b3415610196576040513481524260208201527f5e32da036722824668dcb7102e4c5bca6c9e27c6471a05559320c5621bdb654860403392a26040516331a9108f60e11b81527f000000000000000000000000000000000000000000000000000000000000000060048201526020816024817f00000000000000000000000000000000000000000000000000000000000000006001600160a01b03165afa90811561018b575f9161015c575b506001600160a01b03165f80808034855af16100df61084c565b5015610125576100f13460025461088b565b6002557f23c66d89e0135aaea90eae0a65f26e5ce7b564834613ad71f4c7ff723354f13e60408051348152426020820152a2005b60405162461bcd60e51b815260206004820152600f60248201526e151c985b9cd9995c8819985a5b1959608a1b6044820152606490fd5b61017e915060203d602011610184575b61017681836107ba565b8101906107f0565b5f6100c5565b503d61016c565b6040513d5f823e3d90fd5b60405162461bcd60e51b815260206004820152600d60248201526c139bc81d985b1d59481cd95b9d609a1b6044820152606490fd5b5f3560e01c9081630ba0d3de1461079b5750806310f26622146106e657806312065fe0146106cb57806317d70f7c14610691578063285f8b4f146105815780633fd773e91461053d57806378b903371461051c578063db2e21bc1461038f578063f797c6e9146102665763fea08a8e14610245575f61000f565b34610262575f366003190112610262576020600254604051908152f35b5f80fd5b34610262575f366003190112610262576040516331a9108f60e11b81527f000000000000000000000000000000000000000000000000000000000000000060048201526020816024817f00000000000000000000000000000000000000000000000000000000000000006001600160a01b03165afa801561018b576102fd915f91610370575b506001600160a01b0316331461080f565b60015460ff81161561033e5760ff19166001556040514281527f637c58fba2f2716d92b1b2be2fc8de8681201a8ca85625f268b8ee5c65323b3f60203392a2005b60405162461bcd60e51b815260206004820152600a602482015269139bdd081c185d5cd95960b21b6044820152606490fd5b610389915060203d6020116101845761017681836107ba565b826102ec565b34610262575f366003190112610262576040516331a9108f60e11b81527f000000000000000000000000000000000000000000000000000000000000000060048201526020816024817f00000000000000000000000000000000000000000000000000000000000000006001600160a01b03165afa801561018b57610425915f9161037057506001600160a01b0316331461080f565b60025f541461050d5760025f554780156104cf575f80808084335af161044961084c565b50156104965761045b8160025461088b565b6002556040519081524260208201527fbb757047c2b5f3974fe26b7c10f732e7bce710b0952a71082702781e62ae059560403392a260015f55005b60405162461bcd60e51b815260206004820152601160248201527015da5d1a191c985dd85b0819985a5b1959607a1b6044820152606490fd5b60405162461bcd60e51b81526020600482015260166024820152754e6f2062616c616e636520746f20776974686472617760501b6044820152606490fd5b633ee5aeb560e01b5f5260045ffd5b34610262575f36600319011261026257602060ff6001541615604051908152f35b34610262575f366003190112610262576040517f00000000000000000000000000000000000000000000000000000000000000006001600160a01b03168152602090f35b34610262575f366003190112610262576040516331a9108f60e11b81527f000000000000000000000000000000000000000000000000000000000000000060048201526020816024817f00000000000000000000000000000000000000000000000000000000000000006001600160a01b03165afa801561018b57610617915f9161037057506001600160a01b0316331461080f565b60015460ff811661065b5760019060ff1916176001556040514281527fc095889dc3eaa79185786bd97d48fd9e0eb9d30fab9d9e6e5c5782771c512d2560203392a2005b60405162461bcd60e51b815260206004820152600e60248201526d105b1c9958591e481c185d5cd95960921b6044820152606490fd5b34610262575f3660031901126102625760206040517f00000000000000000000000000000000000000000000000000000000000000008152f35b34610262575f36600319011261026257602047604051908152f35b34610262575f366003190112610262576040516331a9108f60e11b81527f000000000000000000000000000000000000000000000000000000000000000060048201526020816024817f00000000000000000000000000000000000000000000000000000000000000006001600160a01b03165afa801561018b576020915f9161077e575b506040516001600160a01b039091168152f35b6107959150823d84116101845761017681836107ba565b8261076b565b34610262575f3660031901126102625760209060ff6001541615158152f35b90601f8019910116810190811067ffffffffffffffff8211176107dc57604052565b634e487b7160e01b5f52604160045260245ffd5b9081602091031261026257516001600160a01b03811681036102625790565b1561081657565b60405162461bcd60e51b815260206004820152600e60248201526d2737ba1027232a103437b63232b960911b6044820152606490fd5b3d15610886573d9067ffffffffffffffff82116107dc576040519161087b601f8201601f1916602001846107ba565b82523d5f602084013e565b606090565b9190820180921161089857565b634e487b7160e01b5f52601160045260245ffdfea2646970667358221220b8b4a30e757830e3e728494dad4095bda6257ba04ebbf2c85dea57368b89e93b64736f6c634300081c0033",
  "linkReferences": {},
  "deployedLinkReferences": {},
  "immutableReferences": {
    "8276": [
      {
        "length": 32,
        "start": 141
      },
      {
        "length": 32,
        "start": 689
      },
      {
        "length": 32,
        "start": 986
      },
      {
        "length": 32,
        "start": 1362
      },
      {
        "length": 32,
        "start": 1484
      },
      {
        "length": 32,
        "start": 1841
      }
    ],
    "8278": [
      {
        "length": 32,
        "start": 97
      },
      {
        "length": 32,
        "start": 645
      },
      {
        "length": 32,
        "start": 942
      },
      {
        "length": 32,
        "start": 1440
      },
      {
        "length": 32,
        "start": 1704
      },
      {
        "length": 32,
        "start": 1797
      }
    ]
  },
  "inputSourceName": "project/contracts/RevenueDistributor.sol",
  "buildInfoId": "solc-0_8_28-0e65c18c86f18ad5e22cb80e1d7729eb09de73d7"
}